:020000020000FC
:100000000C944411189518951895189518951895ED
:100010001895189518951895189518951895189578
:1000200018951895189518950C94551018951895BD
:100030001895189518951895189518951895189558
:100040001895189518951895189518951895189548
:100050001895189518951895189518951895189538
:100060001895189518951895189518951895189528
:100070001895189518951895189518951895189518
:100080001895189518951895189518951895189508
:10009000189518951895189501E0089500E00895B1
:1000A000002319F40E94AC06089501E0089500238E
:1000B00021F489010E94C006089501E008950023FB
:1000C00019F40E94CA06089501E00895102F0A014C
:1000D0001B0101E0112329F4A901800191010E9473
:1000E000CD060895102F0A011B0101E0112329F408
:1000F000A901800191010E9420070895239804B16D
:10010000076004B905B10F6005B90DB103600DB901
:100110000EB103600EB90CB500610CBD0CB5037FC8
:100120000CBD0CB50C600CBD04B1066004B90CB577
:100130000C7F0CBD0CB50CBD0DB501600DBD0CB533
:1001400000640CBD00E000930401009305010895D4
:10015000102F11FB10E010F91093050108950EB156
:1001600003600EB900910501005019F00A9519F0CD
:1001700008957098089571980895A801B9014C7F69
:10018000762F652F542F40E00170102F110F512B47
:100190008A019B01089500E005C003600EB900913B
:1001A0000501039500930501009105010230B0F4AB
:1001B000D6DF07ED0EBD0DB5102F17FFFCCF00E009
:1001C0000EBD0DB5102F17FFFCCF0EB50C730C3301
:1001D0000EB119F303600EB900E0089501E008952F
:1001E000BEDF07ED0EBD0DB5102F17FFFCCF00E0F1
:1001F0000EBD0DB5102F17FFFCCF0EB5102F17FD3C
:1002000007C000E00EBD0DB5102F17FDF6CFFBCFD8
:100210000EB103600EB90EB50895249708831983B3
:100220002A833B83088119812A813B81A6DFE0E094
:10023000F1E00083118322833383088189DF4091B9
:10024000050101E010E00E945611202F00910401E9
:10025000022311F001E001C000E0006039F02095B8
:1002600000910401022300930401BADF78DF02ED5C
:100270000EBD0DB5102F17FFFCCF00910201000F2E
:10028000E0E0F1E01181110F10E0111F012B0EBD14
:100290000DB5102F17FFFCCF109101011C7F110F1E
:1002A000009101010370102B1EBD0DB5102F17FF1B
:1002B000FCCF009100010EBD0DB5102F17FFFCCF34
:1002C0000FEF0EBD0DB5102F17FFFCCF0FEF0EBDBA
:1002D0000DB5102F17FFFCCF0FEF0EBD0DB5102F72
:1002E00017FFFCCF0FEF0EBD0DB5102F17FFFCCF82
:1002F0000EB501E0249608950EB103600EB908957D
:10030000AC01C80108E001C00A95002309F453C2FA
:10031000F89410E01EBD1DB5212F27FFFCCF1EB5A0
:100320001093F10010E01EBD1DB5212F27FFFCCF5B
:100330001EB51093F10010E01EBD1DB5212F27FF43
:10034000FCCF1EB51093F10010E01EBD1DB5212F8E
:1003500027FFFCCF1EB51093F10010E01EBD1DB5A8
:10036000212F27FFFCCF1EB51093F10010E01EBD1A
:100370001DB5212F27FFFCCF1EB51093F10010E013
:100380001EBD1DB5212F27FFFCCF1EB51093F10018
:1003900010E01EBD1DB5212F27FFFCCF1EB5109309
:1003A000F10010E01EBD1DB5212F27FFFCCF1EB5AB
:1003B0001093F10010E01EBD1DB5212F27FFFCCFCB
:1003C0001EB51093F10010E01EBD1DB5212F27FFB3
:1003D000FCCF1EB51093F10010E01EBD1DB5212FFE
:1003E00027FFFCCF1EB51093F10010E01EBD1DB518
:1003F000212F27FFFCCF1EB51093F10010E01EBD8A
:100400001DB5212F27FFFCCF1EB51093F10010E082
:100410001EBD1DB5212F27FFFCCF1EB51093F10087
:1004200010E01EBD1DB5212F27FFFCCF1EB5109378
:10043000F10010E01EBD1DB5212F27FFFCCF1EB51A
:100440001093F10010E01EBD1DB5212F27FFFCCF3A
:100450001EB51093F10010E01EBD1DB5212F27FF22
:10046000FCCF1EB51093F10010E01EBD1DB5212F6D
:1004700027FFFCCF1EB51093F10010E01EBD1DB587
:10048000212F27FFFCCF1EB51093F10010E01EBDF9
:100490001DB5212F27FFFCCF1EB51093F10010E0F2
:1004A0001EBD1DB5212F27FFFCCF1EB51093F100F7
:1004B00010E01EBD1DB5212F27FFFCCF1EB51093E8
:1004C000F10010E01EBD1DB5212F27FFFCCF1EB58A
:1004D0001093F10010E01EBD1DB5212F27FFFCCFAA
:1004E0001EB51093F10010E01EBD1DB5212F27FF92
:1004F000FCCF1EB51093F10010E01EBD1DB5212FDD
:1005000027FFFCCF1EB51093F10010E01EBD1DB5F6
:10051000212F27FFFCCF1EB51093F10010E01EBD68
:100520001DB5212F27FFFCCF1EB51093F10010E061
:100530001EBD1DB5212F27FFFCCF1EB51093F10066
:1005400010E01EBD1DB5212F27FFFCCF1EB5109357
:10055000F10010E01EBD1DB5212F27FFFCCF1EB5F9
:100560001093F10010E01EBD1DB5212F27FFFCCF19
:100570001EB51093F10010E01EBD1DB5212F27FF01
:10058000FCCF1EB51093F10010E01EBD1DB5212F4C
:1005900027FFFCCF1EB51093F10010E01EBD1DB566
:1005A000212F27FFFCCF1EB51093F10010E01EBDD8
:1005B0001DB5212F27FFFCCF1EB51093F10010E0D1
:1005C0001EBD1DB5212F27FFFCCF1EB51093F100D6
:1005D00010E01EBD1DB5212F27FFFCCF1EB51093C7
:1005E000F10010E01EBD1DB5212F27FFFCCF1EB569
:1005F0001093F10010E01EBD1DB5212F27FFFCCF89
:100600001EB51093F10010E01EBD1DB5212F27FF70
:10061000FCCF1EB51093F10010E01EBD1DB5212FBB
:1006200027FFFCCF1EB51093F10010E01EBD1DB5D5
:10063000212F27FFFCCF1EB51093F10010E01EBD47
:100640001DB5212F27FFFCCF1EB51093F10010E040
:100650001EBD1DB5212F27FFFCCF1EB51093F10045
:1006600010E01EBD1DB5212F27FFFCCF1EB5109336
:10067000F10010E01EBD1DB5212F27FFFCCF1EB5D8
:100680001093F10010E01EBD1DB5212F27FFFCCFF8
:100690001EB51093F10010E01EBD1DB5212F27FFE0
:1006A000FCCF1EB51093F10010E01EBD1DB5212F2B
:1006B00027FFFCCF1EB51093F10010E01EBD1DB545
:1006C000212F27FFFCCF1EB51093F10010E01EBDB7
:1006D0001DB5212F27FFFCCF1EB51093F10010E0B0
:1006E0001EBD1DB5212F27FFFCCF1EB51093F100B5
:1006F00010E01EBD1DB5212F27FFFCCF1EB51093A6
:10070000F10010E01EBD1DB5212F27FFFCCF1EB547
:100710001093F10010E01EBD1DB5212F27FFFCCF67
:100720001EB51093F10010E01EBD1DB5212F27FF4F
:10073000FCCF1EB51093F10010E01EBD1DB5212F9A
:1007400027FFFCCF1EB51093F10010E01EBD1DB5B4
:10075000212F27FFFCCF1EB51093F10010E01EBD26
:100760001DB5212F27FFFCCF1EB51093F10010E01F
:100770001EBD1DB5212F27FFFCCF1EB51093F10024
:1007800010E01EBD1DB5212F27FFFCCF1EB5109315
:10079000F1001091E8001F771093E8007894109111
:1007A000E800212F25FDB0CD1091EB00212F20FD79
:1007B000F6CF00E014C0E0E0F1E000811181228179
:1007C000338100501E4F2F4F3F4F008311832283F0
:1007D00033830197082F092B09F094CD01E0CA015A
:1007E00008952497088319832A833B8308811981FC
:1007F0002A813B81C2DCE0E0F1E0008311832283A7
:1008000033830881A5DC4091050101E010E00E94DE
:100810005611202F00910401022311F001E001C0C4
:1008200000E0006039F0209500910401022300935C
:100830000401D6DC94DC03E50EBD0DB5102F17FFC7
:10084000FCCF00910201000FE0E0F1E01181110FF7
:1008500010E0111F012B0EBD0DB5102F17FFFCCF9F
:1008600000910101000F0EBD0DB5102F17FFFCCF39
:1008700000E00EBD0DB5102F17FFFCCF0EB50EB169
:1008800003600EB9ADDC6BDC02E80EBD0DB5102FB8
:1008900017FFFCCF00910201000FE0E0F1E01181B1
:1008A000110F10E0111F012B0EBD0DB5102F17FFFA
:1008B000FCCF109101011C7F110F00910101037009
:1008C000102B1EBD0DB5102F17FFFCCF009100019E
:1008D0000EBD0DB5102F17FFFCCF0EB501E024960D
:1008E000089514C000E00EBD0DB5102F17FFFCCF0A
:1008F000E0E0F1E000811181228133810F5F1F4F21
:100900002F4F3F4F008311832283338300910001D7
:10091000002341F7E0E0F1E0018100FDE3CF0EB5F7
:100920000EB103600EB94091050101E010E00E9494
:10093000561110910401102B109304010895592FA2
:10094000682FC80108E0CEC1F8941091F1001EBDD7
:100950001DB5212F27FFFCCF1091F1001EBD1DB545
:10096000212F27FFFCCF1091F1001EBD1DB5212FB7
:1009700027FFFCCF1091F1001EBD1DB5212F27FFD1
:10098000FCCF1091F1001EBD1DB5212F27FFFCCF1C
:100990001091F1001EBD1DB5212F27FFFCCF109136
:1009A000F1001EBD1DB5212F27FFFCCF1091F100D6
:1009B0001EBD1DB5212F27FFFCCF1091F1001EBDDC
:1009C0001DB5212F27FFFCCF1091F1001EBD1DB5D5
:1009D000212F27FFFCCF1091F1001EBD1DB5212F47
:1009E00027FFFCCF1091F1001EBD1DB5212F27FF61
:1009F000FCCF1091F1001EBD1DB5212F27FFFCCFAC
:100A00001091F1001EBD1DB5212F27FFFCCF1091C5
:100A1000F1001EBD1DB5212F27FFFCCF1091F10065
:100A20001EBD1DB5212F27FFFCCF1091F1001EBD6B
:100A30001DB5212F27FFFCCF1091F1001EBD1DB564
:100A4000212F27FFFCCF1091F1001EBD1DB5212FD6
:100A500027FFFCCF1091F1001EBD1DB5212F27FFF0
:100A6000FCCF1091F1001EBD1DB5212F27FFFCCF3B
:100A70001091F1001EBD1DB5212F27FFFCCF109155
:100A8000F1001EBD1DB5212F27FFFCCF1091F100F5
:100A90001EBD1DB5212F27FFFCCF1091F1001EBDFB
:100AA0001DB5212F27FFFCCF1091F1001EBD1DB5F4
:100AB000212F27FFFCCF1091F1001EBD1DB5212F66
:100AC00027FFFCCF1091F1001EBD1DB5212F27FF80
:100AD000FCCF1091F1001EBD1DB5212F27FFFCCFCB
:100AE0001091F1001EBD1DB5212F27FFFCCF1091E5
:100AF000F1001EBD1DB5212F27FFFCCF1091F10085
:100B00001EBD1DB5212F27FFFCCF1091F1001EBD8A
:100B10001DB5212F27FFFCCF1091F1001EBD1DB583
:100B2000212F27FFFCCF1091F1001EBD1DB5212FF5
:100B300027FFFCCF1091F1001EBD1DB5212F27FF0F
:100B4000FCCF1091F1001EBD1DB5212F27FFFCCF5A
:100B50001091F1001EBD1DB5212F27FFFCCF109174
:100B6000F1001EBD1DB5212F27FFFCCF1091F10014
:100B70001EBD1DB5212F27FFFCCF1091F1001EBD1A
:100B80001DB5212F27FFFCCF1091F1001EBD1DB513
:100B9000212F27FFFCCF1091F1001EBD1DB5212F85
:100BA00027FFFCCF1091F1001EBD1DB5212F27FF9F
:100BB000FCCF1091F1001EBD1DB5212F27FFFCCFEA
:100BC0001091F1001EBD1DB5212F27FFFCCF109104
:100BD000F1001EBD1DB5212F27FFFCCF1091F100A4
:100BE0001EBD1DB5212F27FFFCCF1091F1001EBDAA
:100BF0001DB5212F27FFFCCF1091F1001EBD1DB5A3
:100C0000212F27FFFCCF1091F1001EBD1DB5212F14
:100C100027FFFCCF1091F1001EBD1DB5212F27FF2E
:100C2000FCCF1091F1001EBD1DB5212F27FFFCCF79
:100C30001091F1001EBD1DB5212F27FFFCCF109193
:100C4000F1001EBD1DB5212F27FFFCCF1091F10033
:100C50001EBD1DB5212F27FFFCCF1091F1001EBD39
:100C60001DB5212F27FFFCCF1091F1001EBD1DB532
:100C7000212F27FFFCCF1091F1001EBD1DB5212FA4
:100C800027FFFCCF1091F1001EBD1DB5212F27FFBE
:100C9000FCCF1091F1001EBD1DB5212F27FFFCCF09
:100CA0001091F1001EBD1DB5212F27FFFCCF109123
:100CB000F1001EBD1DB5212F27FFFCCF1091F100C3
:100CC0001EBD1DB5212F27FFFCCF1EB51091E800DA
:100CD0001B7F1093E8001091E8001F771093E80045
:100CE00078940A95002361F01091E800212F25FDEA
:100CF0002BCE1091EB00212F20FDF6CF00E026C077
:100D0000E0E0F1E0008111812281338100501E4F2B
:100D10002F4F3F4F0083118322833383019700912C
:100D20000101037071F40EB103600EB94091050129
:100D300001E010E00E94561110910401102B109355
:100D40000401082F092B09F0FDCD01E0862F952F16
:100D500008950E947E0008950091060110910701F8
:100D6000011731F0009106010093070103E0089597
:100D70000E94CB00013011F400E0089502E00895D4
:100D80004FEF5FE760E0F801408351836283638344
:100D9000E3DF08950091060108950E945C112497F5
:100DA000A1E0088319832A833B83CA0114C001E0B0
:100DB00010E00E948001A02F0E947C010197088111
:100DC00019812A813B810F5F1F4F2F4F3F4F0883AF
:100DD00019832A833B83082F092B39F1A13029F588
:100DE000088119812A813B810E940D01088100FD43
:100DF000DECF813000E0900751F401E010E00E9466
:100E00008001A02F0E947C0180E090E0D8CF02E01A
:100E100010E00E948001A02F0E947C0102970881AF
:100E200019812A813B810E5FCFCF0E947C01AA23CA
:100E300011F401E001C000E02496E3E00C9460119D
:100E40009A938A932497088319832A833B83CA0140
:100E5000009106010023B9F001E044C001E010E078
:100E60000E949F04002329F10E94710401970881C8
:100E700019812A813B810F5F1F4F2F4F3F4F0883FE
:100E800019832A833B83082F092B49F10881198193
:100E90002A813B810E94F103088100FDDFCF813070
:100EA00000E0900769F401E010E00E949F04002335
:100EB00011F44FDFD1CF0E94710480E090E0D7CFD2
:100EC00002E010E00E949F04002399F30E94710445
:100ED0000297088119812A813B810E5FCDCF0E9444
:100EE000710400E024968991999108950E9430112F
:100EF00000E00E9485070E949D0700E010E0089531
:100F000000E00E94850701E008951FB71078212FA7
:100F1000F89410E81093610000936100222309F017
:100F2000789408950E9440100E94E00A089508D025
:100F30000E9452100E94EB0AFBCFF4DFF8DF089505
:100F40000895009108010A3221F45F9A85D15F98D3
:100F5000089500910801083221F45D9A13D15D983B
:100F60000895009108010050A9F0035079F00F5046
:100F700079F0085099F00A95A9F0035089F00750CC
:100F800059F00A5079F00B5281F012C01ED008952A
:100F900063D00895A1D00895B3D0089500E006C0AD
:100FA000C2D20895C3D201E0089501E0CBD10895E3
:100FB00001E000931F0105E000931C0100E2009393
:100FC0001D0100E000931E010895629700910C013D
:100FD000033108F002E110E7188310E01983109143
:100FE0001C011A8310E01B831C831D831E831AE0DF
:100FF0001F8310E0188719871A871B8710911D011E
:101000001C8710911E011D8710E01E871F87188BFB
:10101000198B20E008C0FE0130E0E20FF31F1081C1
:101020001093F10023952017B0F31091E8001F777B
:101030001093E800E8E0F1E0408951896289738902
:10104000401B504060407040408B518B628B738BD3
:101050006DD201E06296089500910901037021F4B8
:1010600000910A01002319F09ED200E0089510912A
:101070000C01113608F010E6ECE6F3E230E000E097
:1010800011C0083011F4E0E5F3E2003111F4E8E5B5
:10109000F3E2003211F4E8E6F3E23BBF279120933C
:1010A000F1000395043211F0011758F31091E80094
:1010B0001F771093E800E8E0F1E0408951896289E8
:1010C0007389401B504060407040408B518B628B55
:1010D000738B2CD201E00895009126010E945000EC
:1010E000005029F0025029F00A9529F006C01ED2BE
:1010F00005C026D203C031D201C03CD201E0089520
:1011000024979E01009126010E945700005029F06B
:10111000025081F10A9581F131C00B810093F100F9
:101120000A810093F10009810093F1000881009386
:10113000F10000E00093F1000093F10002E0009361
:10114000F10000E00093F1000091E8000F770093B8
:10115000E800E8E0F1E0008911892289338908502C
:10116000104020403040008B118B228B338BDED11E
:1011700001E006C0E5D103C0F0D101C0FBD100E021
:1011800024960895269700910A010D8300910B0182
:101190000C8300910C010B8300910D010A830091D7
:1011A0000F0109830091100108830091250100239C
:1011B00011F4F9D14EC0E8E0F1E0008911892289EB
:1011C0003389402F412B422B432B49F4088119814D
:1011D000012B11F4ABD101C0E6D101E03BC0012FDE
:1011E000122F232F26951795079598014A815B8129
:1011F0006C817D81009126010E946600005029F0DB
:10120000025011F10A9511F123C00881198120E0E3
:1012100030E0E8E0F1E0518962897389452F562F6B
:10122000672F6695579547950417150726073207C8
:1012300011F47CD101C0B7D100E0E8E0F1E0008B0F
:10124000018B028B038BC9CF7BD103C086D101C038
:1012500091D100E026960895269700910A010D830A
:1012600000910B010C8300910C010B8300910D0187
:101270000A8300910F0109830091100108830091F6
:101280002501013011F48FD15AC0E8E0F1E0008966
:10129000118922893389012B022B032B49F4088100
:1012A0001981012B11F442D101C07DD101E048C068
:1012B000009126010E945F00013011F467D13FC008
:1012C000E8E0F1E0118922893389012F122F232FC1
:1012D00026951795079598014A815B816C817D81E0
:1012E000009126010E947200005029F0025011F175
:1012F0000A9511F123C00881198120E030E0E8E06F
:10130000F1E0518962897389452F562F672F6695C1
:1013100057954795041715072607320711F406D18C
:1013200001C041D100E0E8E0F1E0008B018B028BCD
:10133000038BBCCF05D103C010D101C01BD100E08D
:10134000269608959A938A93902F992319F0809165
:10135000100102C080910C0100910A010F7301502D
:1013600009F10B5119F0035219F173C01FE0092F55
:1013700073D099D00091E8000F770093E800E8E07F
:10138000F1E0008911892289338900511040204001
:101390003040008B118B228B338BC8D001E08991B8
:1013A000999108951FE0092F57D0082F9BD0E2CFC5
:1013B000992341F08D3118F4182F125001C01BE110
:1013C000092F07C08C3118F4182F1A9501C01BE1A2
:1013D00000E042D0992379F08830E1F40091E800F0
:1013E0000F770093E800E8E0F1E000891189228995
:1013F00033890850CBCF843069F40091E8000F772F
:101400000093E800E8E0F1E000891189228933893E
:101410000450BCCF082F66D08D3070F044D00091BE
:10142000E8000F770093E800E8E0F1E00089118917
:10143000228933890C51AACF0091E8000F770093DD
:10144000E800E8E0F1E00089118922893389081B6E
:101450009DCFA9D000E0A3CF8A93802F882319F0D5
:1014600000E00093F1001093F10000E00093F10020
:10147000009126010E945F00002311F000E801C0E6
:1014800000E00093F100882349F000E00093F100B0
:101490000093F10019F000E00093F10000E00093E8
:1014A000F100899108950CE10093F1000AE00093A6
:1014B000F10000E00093F10005E00093F10000E08E
:1014C0000093F1000093F1000093F1000093F1000C
:1014D0000093F1000093F1000093F10001E000930C
:1014E000F100089511E01093F1001AE01093F1005B
:1014F00010E81093F10013E01093F10010E0109346
:10150000F1001093F1001093F1001093F1000D30F1
:1015100048F000E80093F1001093F1001093F100FF
:101520001093F100089502D001E0089500E00093C7
:101530001F0100931C0100931D0100931E010895DB
:1015400001E000931F0102E000931C010AE30093F5
:101550001D0100E000931E01089501E000931F01AA
:1015600006E000931C0108E200931D0100E00093D7
:101570001E01089501E000931F0104E000931C0187
:1015800000E000931D0100931E01089501E0009307
:101590001F0107E000931C0107E200931D0100E01A
:1015A00000931E01089501E000931F0105E00093E0
:1015B0001C0104E200931D0100E000931E01089548
:1015C0000AB1006F0AB90091E20004600093E200E2
:1015D0000E94A906089500913501002311F001E051
:1015E00001C000E0006051F002E00093E9000091CA
:1015F000E800102F12FF02C008D0A2D00895009179
:101600002001039500932001089500E012E010935B
:10161000E9001091F100153509F001E01091F10099
:10162000133509F001E01091F100123409F001E0E6
:101630001091F100133409F001E00023B1F00091A2
:10164000E8000B7F0093E8000091E8000F7700931B
:10165000E80001E00093E9000091EB0000620093D4
:10166000EB0001E000932E0108950091F10000933A
:1016700021010091F100009322010091F1000093FB
:1016800023010091F100009324010091F1000093E7
:1016900018010091F100009319010091F1000093ED
:1016A0001A010091F10000931B010091F100002349
:1016B00011F001E001C000E0009325010091F1006C
:1016C0000093260100912801002321F40E944E007E
:1016D000009326010091F10000E008C02091F10084
:1016E00010E0F801E85FFE4F208303950031B0F36E
:1016F0000091E8000B7F0093E8000091E8000F776D
:101700000093E80000912501013019F401E00093F5
:10171000E9000E94A107013091F00091EB00006206
:101720000093EB0000912501013011F401E001C0AC
:1017300002E021E010E0F801E35DFE4F2083089510
:101740000AC000E00093E9000091E800102F13FFA9
:1017500002C00E94910D01E00093E9000091EB00AE
:10176000102F15FDEECF0AC000E00093E9000091B4
:10177000E800102F13FF02C00E94910D02E00093B9
:10178000E9000091EB00102F15FDEECF01E0009372
:10179000E90005C00091EB00102F10FF3AC0009146
:1017A000E800102F15FFF6CF05E50093F10003E5E3
:1017B0000093F10002E40093F10003E50093F100CF
:1017C000009121010093F100009122010093F100AA
:1017D000009123010093F100009124010093F10096
:1017E000009118010093F100009119010093F1009C
:1017F00000911A010093F10000911B010093F10088
:1018000000911F010093F1000091E8000F77009311
:10181000E800089578940091D8000F760093D800DE
:101820000091D80000690093D8000091D8000F7B88
:101830000093D800789408950EE009BD09B5102FE3
:1018400010FFFCCFF8940091D8000F7D0093D800D2
:101850000E94A90C0091E0000E7F0093E0007894B4
:101860000091E20001600093E2000091E200086054
:101870000093E20008950091D900102F10FF12C0CC
:1018800000912701002371F401E00093270100E09B
:1018900000933601E7E3F1E00081118102601183DA
:1018A0000083CADF0091D900102F10FD1AC00091EB
:1018B00027010130B1F400E00093270100933501C6
:1018C000E7E3F1E00081118104601183008300915E
:1018D000E00001600093E0000091D80000620093F6
:1018E000D800E7E3F1E000811181012F00FF0DC076
:1018F000008111811E7F1183008301E00093EA00C3
:1019000000E00093EA000093350100E00093E90055
:101910000091E800102F13FF02C00E94910D08955E
:101920002091EB0021602093EB000093EC000091EC
:10193000ED000270012B0093ED000091ED000260BC
:101940000093ED001091EE00012F000F00E0001F4A
:1019500008950091D8000F7B0093D8000091D90022
:10196000102F11FF0FC000E00093E9000091EB0081
:10197000102F10FD07C000E00093E90010E302E023
:10198000CFDF089500E0089522972091F100309173
:10199000F100013209F51F3FF9F42223E9F4332362
:1019A000D9F44091F10048834091F1004983488186
:1019B0005981452B89F40091E800077F0093E800E6
:1019C0000091E8000E7F0093E8000091E800102FDE
:1019D00010FFFBCF01E03AC0013AB9F51E3FA9F56F
:1019E000222399F5332389F50091F10008830091B2
:1019F000F100098308811981012B39F50091E80074
:101A0000077F0093E8000E944C000A950093F100C4
:101A10000091E8000E7F0093E8000091E800102F8D
:101A200010FFFBCF0091E800102F12FFFBCF0091B9
:101A3000E8000B7F0093E8000091E8000F77009327
:101A4000E80001E00093280101C000E0229608951B
:101A500001E00093E90014E301E80E94900C02E029
:101A60000093E90014E300E80E94900C089500E060
:101A70000895012B31F501E00093E9000091EB009E
:101A800000610093EB0002E00093EA0000E00093A5
:101A9000EA000091EB0008600093EB0002E0009385
:101AA000E9000091EB0000610093EB0004E000937B
:101AB000EA0000E00093EA000091EB000860009368
:101AC000EB000895033059F5105039F01A9561F084
:101AD0001A95B9F01A95E1F022C004E000932C01A8
:101AE00000EF13E220E006C00CE000932C0106EAB0
:101AF00013E220E0E9E2F1E000831183228301E0B8
:101B0000089502E200932C0102EB13E220E0F2CFF1
:101B10000CE100932C0104ED13E220E0EBCF00E098
:101B200008959A938A930091E8000B7F0093E80050
:101B30008091F1009091F100092F005049F10A9530
:101B400009F1025011F10250A9F00A9549F0025032
:101B500069F00A9599F00A95F1F00A9501F124C00F
:101B6000803811F572D0002391F51EC08038E1F461
:101B70002CD12DC08823C1F42DD029C08823A1F4F5
:101B80004CD0F1CF082FD3D1EECF082F8FD1EBCF90
:101B9000082F43D1E8CF813839F40FD2E4CF813018
:101BA00019F441D2002399F4192F082F0E94C40C74
:101BB000002369F40091EB0000620093EB000091B8
:101BC000E800077F0093E80001E000932D01899170
:101BD000999108951091F1000091E30000781F772A
:101BE000012B0093E3000091E800077F0093E800D9
:101BF0000091E8000E7F0093E8000091E800102FAC
:101C000010FD05C00091D900102F10FDF6CF0091F6
:101C1000E30000680093E30008951091F100123092
:101C200010F000E008950091E800077F0093E800BD
:101C3000109335010091E8000E7F0093E8000091B9
:101C400035010E94280D01E008958A93229780E0D3
:101C50001091F1000091F100202F215019F02A95E8
:101C600039F12DC002E100932C0104E713E220E0DA
:101C7000E9E2F1E00083118322830091F1000091F9
:101C8000F1000091F10008830091F10009830091B7
:101C9000E800077F0093E80000912C0110E0288104
:101CA00039810217130788F40F7391F481E010C093
:101CB00000E200932C0106E813E220E0D9CF0E9455
:101CC000620D0023D1F600E07DC0088100932C0155
:101CD0000091E8000F7E03C00091E8000E7F0093A2
:101CE000E80000912C01002309F441C00091E800B4
:101CF000102F14FD3CC00091E800102F10FD0AC009
:101D00000091E800102F14FD05C00091D900102F9C
:101D100010FDF1CF40E019C0E9E2F1E0008111814E
:101D20002281F8012BBF06910093F100E9E2F1E076
:101D30000081118122810F5F1F4F00831183228355
:101D400000912C010A9500932C0100912C01002395
:101D500021F0042F43950034F9F60091E800102F8C
:101D600014FD05C00091D900102F10FDB5CF8130B2
:101D7000A1F40091E800102F14FD0FC00091E800BD
:101D8000102F10FD05C00091D900102F10FDF6CFC7
:101D90000091E8000E7F0093E8000091E800102F0A
:101DA00014FD05C00091D900102F10FDF6CF009151
:101DB000E8000F7E0093E8000091E8000B7F00939D
:101DC000E80001E02296899108950091E800077FDC
:101DD0000093E800009135010093F1000091E800C4
:101DE0000E7F0093E8000091E8000F770093E80071
:101DF0000091E800102F12FD05C00091D900102FAE
:101E000010FDF6CF0091E8000B7F0093E8000091F1
:101E1000E8000F770093E80008951091F100109109
:101E2000F1002091F100005829F00A9551F10A952E
:101E300079F13AC00091E800077F0093E800009133
:101E400034010093F10000E00093F1000091E800FC
:101E50000E7F0093E8000091E800102F12FD05C0EE
:101E60000091D900102F10FDF6CF0091E8000B7FF4
:101E70000093E8000091E8000F770093E80001E08C
:101E800008950091E800077F0093E80000E0D9CFB3
:101E90000091E800077F0093E8002F7730E0F90118
:101EA000E35DFE4F0081CDCF00E00895005019F0B2
:101EB000025029F002C00091F10000E00895009165
:101EC000F1001091F1000023C1F70091F1000F77AC
:101ED00051F41091EB0010621093EB001091E800A8
:101EE000177F1093E8000093E9001091EB00212F79
:101EF00020FD04C000E00093E90008951091EB007C
:101F000010621093EB0010E01093E90021E0F8015B
:101F1000E35DFE4F20830091E800077F0093E80017
:101F20000091E8000E7F0093E80001E00895005062
:101F300019F0025029F002C00091F10000E008956C
:101F40000091F1001091F1000023C1F72091F10000
:101F50002F772093E9000091EB00102F10FD04C0B3
:101F600000E00093E9000895A1F00091EB0000610A
:101F70000093EB00422F01E010E00E945611009305
:101F8000EA0000E00093EA000091EB000860009393
:101F9000EB0000E00093E90030E0F901E35DFE4F63
:101FA00000830091E800077F0093E8000091E800BB
:101FB0000E7F0093E80001E0089522970091F10060
:101FC0000091F1001091F10018831091F100198334
:101FD000002339F50091E800077F0093E8000881AD
:101FE00019810E94370D0093F1000091E8000E7FE7
:101FF0000093E8000091E800102F12FD05C0009149
:10200000D900102F10FDF6CF0091E8000B7F009350
:10201000E8000091E8000F770093E80001E02296C5
:10202000089500E0FCCF22972091F1000091F1008B
:102030001091F10018831091F1001983002311F021
:1020400000E01CC00091E800077F0093E8000881D1
:1020500019810E94390D00E00093E9000091E80029
:102060000E7F0093E8000091E800102F10FD05C0DE
:102070000091D900102F10FDF6CF01E022960895AF
:102080000091D70001600093D7000091D7000F7B2B
:102090000093D7000091D70000680093D7000E94FA
:1020A0000A0C08950E943B0C08959A938A93FA9320
:1020B000EA933A922A921A920A927A936A935A93DC
:1020C0004A933A932A931A930A938FB79BB7009136
:1020D000E100102F12FF0AC00091E200102F12FF42
:1020E00005C00BEF0093E1000E94FF0A0091E100A0
:1020F000102F10FF41C00091E200102F10FF3CC0D4
:10210000009136010130E1F4009135010023C1F066
:102110000091E2000E7F0093E2000FEE0093E100D9
:102120000091E20000610093E20009B50D7F09BD56
:1021300000E009BD0091D80000620093D8001CC0E7
:102140000FEE0093E100E7E3F1E00081118100620E
:10215000118300830EEF0093E1000091E200006123
:102160000093E2000091D80000620093D80009B506
:102170000D7F09BD00E009BD0091E100102F14FFA3
:1021800028C00091E200102F14FF23C009B5102FC2
:1021900010FD06C00EE009BD09B5102F10FFFCCFE1
:1021A0000091D8000F7D0093D8000FEE0093E1005E
:1021B0000091E2000F7E0093E200E7E3F1E000818E
:1021C00011810064118300830091E200016000939B
:1021D000E2000091E100102F15FF19C00091E2000C
:1021E000102F15FF14C00091E2000F7E0093E20053
:1021F0000FED0093E1000091E2000F7D0093E200FB
:10220000E7E3F1E000811181006811830083009110
:10221000E100102F13FF11C00091E200102F13FFF7
:102220000CC007EF0093E1000E94A90CE7E3F1E086
:10223000008111811160118300839BBF8FBF0991C1
:1022400019912991399149915991699179910990FF
:10225000199029903990E991F9918991999118955E
:102260000FB70078102FF89407EF04BFA89508E186
:102270000093600000E000936000112309F078945F
:10228000089500008895FECF08E70DBF01E00EBF5E
:10229000C9E7D3E00E948007002311F00E94781163
:1022A0000E9476070E9441110C9441114A951AF040
:1022B000000F111FFBCF0895AA939A938A93089554
:1022C000AA8199818881F0E0EC0FFD1FEF0108954C
:1022D00020E008D0E9F708953BBF27913BB702D033
:1022E000D9F708952D9301501040202F212B0895E8
:1022F00004EF402E03E2502E00E0602EF201362D56
:102300006BBE07911691F201EE5FFF4F3F4F3BBF4F
:10231000A791B691F201362DEC5FFF4F3F4F3BBFC7
:10232000479157916691242F252B262B21F0FA01F6
:10233000362FD2DF01C0CCDF07E0400E00E0501E98
:10234000601EA201662D4B3F53426040B8F20895D3
:1023500041544D454C202020415439305553423191
:102360003238204D20532020302E303000800302A0
:102370001F0000001201000200000040EB031A20C1
:10238000001001020301090220000101008032094E
:102390000400000208065000070581024000000703
:1023A0000502024000000C03410054004D004500AE
:1023B0004C002203410056005200200055005300FB
:1023C00042002000530054004F00520041004700DB
:1023D000450020001C033000300030003000300089
:1023E000300030003000300030003000300030006D
:0B23F000040309043900000100000094
:0400000300000000F9
:00000001FF
